{
  "contractName": "WakuPubKeyStore",
  "abi": [
    {
      "inputs": [
        {
          "internalType": "address",
          "name": "",
          "type": "address"
        }
      ],
      "name": "pubkeys",
      "outputs": [
        {
          "internalType": "bytes",
          "name": "",
          "type": "bytes"
        }
      ],
      "stateMutability": "view",
      "type": "function"
    },
    {
      "inputs": [
        {
          "internalType": "bytes",
          "name": "_pubkey",
          "type": "bytes"
        }
      ],
      "name": "addPubKey",
      "outputs": [],
      "stateMutability": "nonpayable",
      "type": "function"
    },
    {
      "inputs": [
        {
          "internalType": "address",
          "name": "addr",
          "type": "address"
        }
      ],
      "name": "getPubKey",
      "outputs": [
        {
          "internalType": "bytes",
          "name": "",
          "type": "bytes"
        }
      ],
      "stateMutability": "view",
      "type": "function"
    }
  ],
  "bytecode": "0x608060405234801561001057600080fd5b5061040c806100206000396000f3fe608060405234801561001057600080fd5b50600436106100415760003560e01c80639e50f99c14610046578063c0c57f99146100ee578063fce9512a14610196575b600080fd5b6100796004803603602081101561005c57600080fd5b503573ffffffffffffffffffffffffffffffffffffffff166101c9565b6040805160208082528351818301528351919283929083019185019080838360005b838110156100b357818101518382015260200161009b565b50505050905090810190601f1680156100e05780820380516001836020036101000a031916815260200191505b509250505060405180910390f35b6101946004803603602081101561010457600080fd5b81019060208101813564010000000081111561011f57600080fd5b82018360208201111561013157600080fd5b8035906020019184600183028401116401000000008311171561015357600080fd5b91908080601f016020809104026020016040519081016040528093929190818152602001838380828437600092019190915250929550610263945050505050565b005b610079600480360360208110156101ac57600080fd5b503573ffffffffffffffffffffffffffffffffffffffff16610285565b600060208181529181526040908190208054825160026001831615610100026000190190921691909104601f81018590048502820185019093528281529290919083018282801561025b5780601f106102305761010080835404028352916020019161025b565b820191906000526020600020905b81548152906001019060200180831161023e57829003601f168201915b505050505081565b3360009081526020818152604090912082516102819284019061033b565b5050565b73ffffffffffffffffffffffffffffffffffffffff81166000908152602081815260409182902080548351601f600260001961010060018616150201909316929092049182018490048402810184019094528084526060939283018282801561032f5780601f106103045761010080835404028352916020019161032f565b820191906000526020600020905b81548152906001019060200180831161031257829003601f168201915b50505050509050919050565b828054600181600116156101000203166002900490600052602060002090601f016020900481019282601f1061037c57805160ff19168380011785556103a9565b828001600101855582156103a9579182015b828111156103a957825182559160200191906001019061038e565b506103b59291506103b9565b5090565b6103d391905b808211156103b557600081556001016103bf565b9056fea2646970667358221220fb394102c22ffd9cebc432942322a26b91d5af9e651be94b498d3d6fd661c22964736f6c63430006060033",
  "immutableReferences": {},
  "source": "// SPDX-License-Identifier: MIT\npragma solidity = 0.6.6;\n\ncontract WakuPubKeyStore {\n\n  mapping(address => bytes) public pubkeys;\n\n\n  function addPubKey(bytes memory _pubkey) public {\n    pubkeys[msg.sender] = _pubkey;\n  }\n\n  function getPubKey(address addr) public view returns(bytes memory){\n    return(pubkeys[addr]);\n  }\n}\n",
  "sourcePath": "/home/henrique/projects/Test/smarts_contracts/contracts/WakuPubKeyStorer.sol",
  "compiler": {
    "name": "solc",
    "version": "0.6.6+commit.6c089d02.Emscripten.clang"
  },
  "schemaVersion": "3.2.0",
  "updatedAt": "2021-07-01T02:20:08.978Z",
  "devdoc": {
    "methods": {}
  },
  "userdoc": {
    "methods": {}
  }
}